{
  "contractName": "XKYC",
  "abi": [
    {
      "inputs": [],
      "stateMutability": "nonpayable",
      "type": "constructor"
    },
    {
      "anonymous": false,
      "inputs": [
        {
          "indexed": true,
          "internalType": "address",
          "name": "previousOwner",
          "type": "address"
        },
        {
          "indexed": true,
          "internalType": "address",
          "name": "newOwner",
          "type": "address"
        }
      ],
      "name": "OwnershipTransferred",
      "type": "event"
    },
    {
      "inputs": [
        {
          "internalType": "address",
          "name": "",
          "type": "address"
        }
      ],
      "name": "Customers",
      "outputs": [
        {
          "internalType": "string",
          "name": "cnxid",
          "type": "string"
        },
        {
          "internalType": "string",
          "name": "email",
          "type": "string"
        },
        {
          "internalType": "string",
          "name": "kycDocCID",
          "type": "string"
        },
        {
          "internalType": "string",
          "name": "verificationStatus",
          "type": "string"
        }
      ],
      "stateMutability": "view",
      "type": "function",
      "constant": true
    },
    {
      "inputs": [],
      "name": "locked",
      "outputs": [
        {
          "internalType": "bool",
          "name": "",
          "type": "bool"
        }
      ],
      "stateMutability": "view",
      "type": "function",
      "constant": true
    },
    {
      "inputs": [],
      "name": "owner",
      "outputs": [
        {
          "internalType": "address",
          "name": "",
          "type": "address"
        }
      ],
      "stateMutability": "view",
      "type": "function",
      "constant": true
    },
    {
      "inputs": [],
      "name": "renounceOwnership",
      "outputs": [],
      "stateMutability": "nonpayable",
      "type": "function"
    },
    {
      "inputs": [
        {
          "internalType": "address",
          "name": "newOwner",
          "type": "address"
        }
      ],
      "name": "transferOwnership",
      "outputs": [],
      "stateMutability": "nonpayable",
      "type": "function"
    },
    {
      "inputs": [],
      "name": "getBNBprice",
      "outputs": [
        {
          "internalType": "int256",
          "name": "",
          "type": "int256"
        }
      ],
      "stateMutability": "view",
      "type": "function",
      "constant": true
    },
    {
      "inputs": [
        {
          "components": [
            {
              "internalType": "string",
              "name": "cnxid",
              "type": "string"
            },
            {
              "internalType": "string",
              "name": "email",
              "type": "string"
            },
            {
              "internalType": "string",
              "name": "kycDocCID",
              "type": "string"
            },
            {
              "internalType": "string",
              "name": "verificationStatus",
              "type": "string"
            }
          ],
          "internalType": "struct XKYC.Customer",
          "name": "details",
          "type": "tuple"
        }
      ],
      "name": "submitDetails",
      "outputs": [
        {
          "internalType": "bool",
          "name": "",
          "type": "bool"
        }
      ],
      "stateMutability": "payable",
      "type": "function",
      "payable": true
    }
  ],
  "bytecode": "0x608060405234801561001057600080fd5b5061002d61002261008760201b60201c565b61008f60201b60201c565b73694aa1769357215de4fac081bf1f309adc325306600560016101000a81548173ffffffffffffffffffffffffffffffffffffffff021916908373ffffffffffffffffffffffffffffffffffffffff160217905550610153565b600033905090565b60008060009054906101000a900473ffffffffffffffffffffffffffffffffffffffff169050816000806101000a81548173ffffffffffffffffffffffffffffffffffffffff021916908373ffffffffffffffffffffffffffffffffffffffff1602179055508173ffffffffffffffffffffffffffffffffffffffff168173ffffffffffffffffffffffffffffffffffffffff167f8be0079c531659141344cd1fd0a4f28419497f9722a3daafe3b4186f6b6457e060405160405180910390a35050565b6111bb806101626000396000f3fe6080604052600436106100705760003560e01c806381f239b01161004e57806381f239b0146100fc5780638da5cb5b14610127578063cf30901214610152578063f2fde38b1461017d57610070565b8063215b9b3a146100755780636ac55e6a146100a5578063715018a6146100e5575b600080fd5b61008f600480360381019061008a9190610a42565b6101a6565b60405161009c9190610aa6565b60405180910390f35b3480156100b157600080fd5b506100cc60048036038101906100c79190610b1f565b6102da565b6040516100dc9493929190610bcb565b60405180910390f35b3480156100f157600080fd5b506100fa61052a565b005b34801561010857600080fd5b5061011161053e565b60405161011e9190610c45565b60405180910390f35b34801561013357600080fd5b5061013c6105ed565b6040516101499190610c6f565b60405180910390f35b34801561015e57600080fd5b50610167610616565b6040516101749190610aa6565b60405180910390f35b34801561018957600080fd5b506101a4600480360381019061019f9190610b1f565b610629565b005b60006040518060400160405280600a81526020017f556e766572696669656400000000000000000000000000000000000000000000815250826060018190525081600160003373ffffffffffffffffffffffffffffffffffffffff1673ffffffffffffffffffffffffffffffffffffffff168152602001908152602001600020600082015181600001908161023b9190610ea0565b5060208201518160010190816102519190610ea0565b5060408201518160020190816102679190610ea0565b50606082015181600301908161027d9190610ea0565b50905050600061028b6105ed565b90508073ffffffffffffffffffffffffffffffffffffffff166108fc349081150290604051600060405180830381858888f193505050501580156102d3573d6000803e3d6000fd5b5050919050565b60016020528060005260406000206000915090508060000180546102fd90610cb9565b80601f016020809104026020016040519081016040528092919081815260200182805461032990610cb9565b80156103765780601f1061034b57610100808354040283529160200191610376565b820191906000526020600020905b81548152906001019060200180831161035957829003601f168201915b50505050509080600101805461038b90610cb9565b80601f01602080910402602001604051908101604052809291908181526020018280546103b790610cb9565b80156104045780601f106103d957610100808354040283529160200191610404565b820191906000526020600020905b8154815290600101906020018083116103e757829003601f168201915b50505050509080600201805461041990610cb9565b80601f016020809104026020016040519081016040528092919081815260200182805461044590610cb9565b80156104925780601f1061046757610100808354040283529160200191610492565b820191906000526020600020905b81548152906001019060200180831161047557829003601f168201915b5050505050908060030180546104a790610cb9565b80601f01602080910402602001604051908101604052809291908181526020018280546104d390610cb9565b80156105205780601f106104f557610100808354040283529160200191610520565b820191906000526020600020905b81548152906001019060200180831161050357829003601f168201915b5050505050905084565b6105326106ac565b61053c600061072a565b565b600080600080600080600560019054906101000a900473ffffffffffffffffffffffffffffffffffffffff1673ffffffffffffffffffffffffffffffffffffffff1663feaf968c6040518163ffffffff1660e01b815260040160a060405180830381865afa1580156105b4573d6000803e3d6000fd5b505050506040513d601f19601f820116820180604052508101906105d8919061100c565b94509450945094509450839550505050505090565b60008060009054906101000a900473ffffffffffffffffffffffffffffffffffffffff16905090565b600560009054906101000a900460ff1681565b6106316106ac565b600073ffffffffffffffffffffffffffffffffffffffff168173ffffffffffffffffffffffffffffffffffffffff16036106a0576040517f08c379a0000000000000000000000000000000000000000000000000000000008152600401610697906110f9565b60405180910390fd5b6106a98161072a565b50565b6106b46107ee565b73ffffffffffffffffffffffffffffffffffffffff166106d26105ed565b73ffffffffffffffffffffffffffffffffffffffff1614610728576040517f08c379a000000000000000000000000000000000000000000000000000000000815260040161071f90611165565b60405180910390fd5b565b60008060009054906101000a900473ffffffffffffffffffffffffffffffffffffffff169050816000806101000a81548173ffffffffffffffffffffffffffffffffffffffff021916908373ffffffffffffffffffffffffffffffffffffffff1602179055508173ffffffffffffffffffffffffffffffffffffffff168173ffffffffffffffffffffffffffffffffffffffff167f8be0079c531659141344cd1fd0a4f28419497f9722a3daafe3b4186f6b6457e060405160405180910390a35050565b600033905090565b6000604051905090565b600080fd5b600080fd5b600080fd5b6000601f19601f8301169050919050565b7f4e487b7100000000000000000000000000000000000000000000000000000000600052604160045260246000fd5b6108588261080f565b810181811067ffffffffffffffff8211171561087757610876610820565b5b80604052505050565b600061088a6107f6565b9050610896828261084f565b919050565b600080fd5b600080fd5b600080fd5b600067ffffffffffffffff8211156108c5576108c4610820565b5b6108ce8261080f565b9050602081019050919050565b82818337600083830152505050565b60006108fd6108f8846108aa565b610880565b905082815260208101848484011115610919576109186108a5565b5b6109248482856108db565b509392505050565b600082601f830112610941576109406108a0565b5b81356109518482602086016108ea565b91505092915050565b6000608082840312156109705761096f61080a565b5b61097a6080610880565b9050600082013567ffffffffffffffff81111561099a5761099961089b565b5b6109a68482850161092c565b600083015250602082013567ffffffffffffffff8111156109ca576109c961089b565b5b6109d68482850161092c565b602083015250604082013567ffffffffffffffff8111156109fa576109f961089b565b5b610a068482850161092c565b604083015250606082013567ffffffffffffffff811115610a2a57610a2961089b565b5b610a368482850161092c565b60608301525092915050565b600060208284031215610a5857610a57610800565b5b600082013567ffffffffffffffff811115610a7657610a75610805565b5b610a828482850161095a565b91505092915050565b60008115159050919050565b610aa081610a8b565b82525050565b6000602082019050610abb6000830184610a97565b92915050565b600073ffffffffffffffffffffffffffffffffffffffff82169050919050565b6000610aec82610ac1565b9050919050565b610afc81610ae1565b8114610b0757600080fd5b50565b600081359050610b1981610af3565b92915050565b600060208284031215610b3557610b34610800565b5b6000610b4384828501610b0a565b91505092915050565b600081519050919050565b600082825260208201905092915050565b60005b83811015610b86578082015181840152602081019050610b6b565b60008484015250505050565b6000610b9d82610b4c565b610ba78185610b57565b9350610bb7818560208601610b68565b610bc08161080f565b840191505092915050565b60006080820190508181036000830152610be58187610b92565b90508181036020830152610bf98186610b92565b90508181036040830152610c0d8185610b92565b90508181036060830152610c218184610b92565b905095945050505050565b6000819050919050565b610c3f81610c2c565b82525050565b6000602082019050610c5a6000830184610c36565b92915050565b610c6981610ae1565b82525050565b6000602082019050610c846000830184610c60565b92915050565b7f4e487b7100000000000000000000000000000000000000000000000000000000600052602260045260246000fd5b60006002820490506001821680610cd157607f821691505b602082108103610ce457610ce3610c8a565b5b50919050565b60008190508160005260206000209050919050565b60006020601f8301049050919050565b600082821b905092915050565b600060088302610d4c7fffffffffffffffffffffffffffffffffffffffffffffffffffffffffffffffff82610d0f565b610d568683610d0f565b95508019841693508086168417925050509392505050565b6000819050919050565b6000819050919050565b6000610d9d610d98610d9384610d6e565b610d78565b610d6e565b9050919050565b6000819050919050565b610db783610d82565b610dcb610dc382610da4565b848454610d1c565b825550505050565b600090565b610de0610dd3565b610deb818484610dae565b505050565b5b81811015610e0f57610e04600082610dd8565b600181019050610df1565b5050565b601f821115610e5457610e2581610cea565b610e2e84610cff565b81016020851015610e3d578190505b610e51610e4985610cff565b830182610df0565b50505b505050565b600082821c905092915050565b6000610e7760001984600802610e59565b1980831691505092915050565b6000610e908383610e66565b9150826002028217905092915050565b610ea982610b4c565b67ffffffffffffffff811115610ec257610ec1610820565b5b610ecc8254610cb9565b610ed7828285610e13565b600060209050601f831160018114610f0a5760008415610ef8578287015190505b610f028582610e84565b865550610f6a565b601f198416610f1886610cea565b60005b82811015610f4057848901518255600182019150602085019450602081019050610f1b565b86831015610f5d5784890151610f59601f891682610e66565b8355505b6001600288020188555050505b505050505050565b600069ffffffffffffffffffff82169050919050565b610f9181610f72565b8114610f9c57600080fd5b50565b600081519050610fae81610f88565b92915050565b610fbd81610c2c565b8114610fc857600080fd5b50565b600081519050610fda81610fb4565b92915050565b610fe981610d6e565b8114610ff457600080fd5b50565b60008151905061100681610fe0565b92915050565b600080600080600060a0868803121561102857611027610800565b5b600061103688828901610f9f565b955050602061104788828901610fcb565b945050604061105888828901610ff7565b935050606061106988828901610ff7565b925050608061107a88828901610f9f565b9150509295509295909350565b7f4f776e61626c653a206e6577206f776e657220697320746865207a65726f206160008201527f6464726573730000000000000000000000000000000000000000000000000000602082015250565b60006110e3602683610b57565b91506110ee82611087565b604082019050919050565b60006020820190508181036000830152611112816110d6565b9050919050565b7f4f776e61626c653a2063616c6c6572206973206e6f7420746865206f776e6572600082015250565b600061114f602083610b57565b915061115a82611119565b602082019050919050565b6000602082019050818103600083015261117e81611142565b905091905056fea264697066735822122045d40e80b94fa18c6359eb12f6852f5728ae8023b3407a8e62e06181f490209c64736f6c63430008120033",
  "immutableReferences": {},
  "source": "// SPDX-License-Identifier: MIT\n\npragma solidity ^0.8.0;\n\nimport \"@openzeppelin/contracts/access/Ownable.sol\";\nimport \"@openzeppelin/contracts/security/ReentrancyGuard.sol\";\nimport \"@chainlink/contracts/src/v0.8/interfaces/AggregatorV3Interface.sol\";\n\ncontract XKYC is Ownable{\n\n    //customer details\n    struct Customer{\n        string cnxid;\n        string email;\n        string kycDocCID;\n        string    verificationStatus; //pending, verified, rejected\n    }\n\n    //store customer details in mapping \n    mapping(address => Customer) public Customers;\n\n    //array of verified addresses\n    address[] verifiedMembers;\n\n    //array of pending verifications\n    address[] pendingVerifications;\n\n    //array of rejected verifications\n    address[] rejectedRequests;\n\n    bool public locked;\n\n    //chainlink pricefeed to check BNB price\n    AggregatorV3Interface internal priceFeed;\n\n    /**\n     * Modifier to limit access to only the admin: \n     * @ONLYOWNER \n     */\n\n    //add means to check that only those registered with CNX can do it\n\n    /**\n     * Modifier to prevent reentrancy in functions: nonReentrant\n     */\n    constructor(){\n        //TODO: change the pricefeed address to that of the mainnet when changing to production:\n        //BNB MAINNET feed address: 0x0567F2323251f0Aab15c8dFb1967E4e8A7D42aeE\n        //current one is sepolia testnet pricefeed address for ETH/USD.\n        priceFeed = AggregatorV3Interface(0x694AA1769357215DE4FAC081bf1f309aDC325306);\n    }\n    //events:\n    //successfully submitted application\n    //successfully changed customer verification status to..${status}\n\n\n    //Customer functions: \n    //will be able to submit request for verification: add customer struct to mapping with address as key\n    //will be able to view verification status\n\n    //admin functions:\n    //verify address\n    //revoke verification\n    //view all addresses and their statuses? or search for an address to view its status\n\n    /**\n     * Get price from feed in int256, amount charged will be as returned here\n     */\n    function getBNBprice() public view returns (int256){\n        (uint80 roundID,\n         int256 answer,\n          uint256 startedAt, \n          uint256 timeStamp,\n          uint80 answeredInRound) = priceFeed.latestRoundData();\n\n        return answer;\n    }\n\n    function submitDetails(Customer memory details) public payable returns (bool){\n        //will charge a fee of about 1.56USD in total, inclusive of gas\n        //set gas limit = 0.29USD\n        //fetch live price from chainlink, calculate using that price \n        details.verificationStatus = 'Unverified';\n        Customers[msg.sender] = details;\n        address payable owner = payable(owner());\n        owner.transfer(msg.value); //send tx money to owner's wallet\n\n\n\n    }\n}",
  "sourcePath": "/home/iandev/xkyc/truffle/contracts/xkyc.sol",
  "compiler": {
    "name": "solc",
    "version": "0.8.18+commit.87f61d96.Emscripten.clang"
  },
  "schemaVersion": "3.4.14",
  "updatedAt": "2023-07-19T13:39:16.632Z",
  "networkType": "ethereum",
  "devdoc": {
    "kind": "dev",
    "methods": {
      "owner()": {
        "details": "Returns the address of the current owner."
      },
      "renounceOwnership()": {
        "details": "Leaves the contract without owner. It will not be possible to call `onlyOwner` functions. Can only be called by the current owner. NOTE: Renouncing ownership will leave the contract without an owner, thereby disabling any functionality that is only available to the owner."
      },
      "transferOwnership(address)": {
        "details": "Transfers ownership of the contract to a new account (`newOwner`). Can only be called by the current owner."
      }
    },
    "version": 1
  },
  "userdoc": {
    "kind": "user",
    "methods": {
      "constructor": {
        "notice": "Modifier to prevent reentrancy in functions: nonReentrant"
      },
      "getBNBprice()": {
        "notice": "Get price from feed in int256, amount charged will be as returned here"
      }
    },
    "version": 1
  }
}