{
  "contractName": "XKYC",
  "abi": [
    {
      "inputs": [],
      "stateMutability": "nonpayable",
      "type": "constructor"
    },
    {
      "anonymous": false,
      "inputs": [
        {
          "indexed": true,
          "internalType": "address",
          "name": "previousOwner",
          "type": "address"
        },
        {
          "indexed": true,
          "internalType": "address",
          "name": "newOwner",
          "type": "address"
        }
      ],
      "name": "OwnershipTransferred",
      "type": "event"
    },
    {
      "anonymous": false,
      "inputs": [
        {
          "indexed": false,
          "internalType": "address",
          "name": "customer",
          "type": "address"
        },
        {
          "indexed": false,
          "internalType": "string",
          "name": "kycDocCID",
          "type": "string"
        },
        {
          "indexed": false,
          "internalType": "string",
          "name": "cnxid",
          "type": "string"
        }
      ],
      "name": "detailsSubmitted",
      "type": "event"
    },
    {
      "inputs": [
        {
          "internalType": "address",
          "name": "",
          "type": "address"
        }
      ],
      "name": "Customers",
      "outputs": [
        {
          "internalType": "string",
          "name": "cnxid",
          "type": "string"
        },
        {
          "internalType": "string",
          "name": "email",
          "type": "string"
        },
        {
          "internalType": "string",
          "name": "kycDocCID",
          "type": "string"
        },
        {
          "internalType": "string",
          "name": "verificationStatus",
          "type": "string"
        }
      ],
      "stateMutability": "view",
      "type": "function",
      "constant": true
    },
    {
      "inputs": [],
      "name": "locked",
      "outputs": [
        {
          "internalType": "bool",
          "name": "",
          "type": "bool"
        }
      ],
      "stateMutability": "view",
      "type": "function",
      "constant": true
    },
    {
      "inputs": [],
      "name": "owner",
      "outputs": [
        {
          "internalType": "address",
          "name": "",
          "type": "address"
        }
      ],
      "stateMutability": "view",
      "type": "function",
      "constant": true
    },
    {
      "inputs": [],
      "name": "renounceOwnership",
      "outputs": [],
      "stateMutability": "nonpayable",
      "type": "function"
    },
    {
      "inputs": [
        {
          "internalType": "address",
          "name": "newOwner",
          "type": "address"
        }
      ],
      "name": "transferOwnership",
      "outputs": [],
      "stateMutability": "nonpayable",
      "type": "function"
    },
    {
      "inputs": [],
      "name": "getBNBprice",
      "outputs": [
        {
          "internalType": "int256",
          "name": "",
          "type": "int256"
        }
      ],
      "stateMutability": "view",
      "type": "function",
      "constant": true
    },
    {
      "inputs": [
        {
          "components": [
            {
              "internalType": "string",
              "name": "cnxid",
              "type": "string"
            },
            {
              "internalType": "string",
              "name": "email",
              "type": "string"
            },
            {
              "internalType": "string",
              "name": "kycDocCID",
              "type": "string"
            },
            {
              "internalType": "string",
              "name": "verificationStatus",
              "type": "string"
            }
          ],
          "internalType": "struct XKYC.Customer",
          "name": "details",
          "type": "tuple"
        }
      ],
      "name": "submitDetails",
      "outputs": [
        {
          "internalType": "bool",
          "name": "",
          "type": "bool"
        }
      ],
      "stateMutability": "payable",
      "type": "function",
      "payable": true
    }
  ],
  "bytecode": "0x608060405234801561001057600080fd5b5061002d61002261008760201b60201c565b61008f60201b60201c565b73694aa1769357215de4fac081bf1f309adc325306600560016101000a81548173ffffffffffffffffffffffffffffffffffffffff021916908373ffffffffffffffffffffffffffffffffffffffff160217905550610153565b600033905090565b60008060009054906101000a900473ffffffffffffffffffffffffffffffffffffffff169050816000806101000a81548173ffffffffffffffffffffffffffffffffffffffff021916908373ffffffffffffffffffffffffffffffffffffffff1602179055508173ffffffffffffffffffffffffffffffffffffffff168173ffffffffffffffffffffffffffffffffffffffff167f8be0079c531659141344cd1fd0a4f28419497f9722a3daafe3b4186f6b6457e060405160405180910390a35050565b61143d806101626000396000f3fe6080604052600436106100705760003560e01c806381f239b01161004e57806381f239b0146100fc5780638da5cb5b14610127578063cf30901214610152578063f2fde38b1461017d57610070565b8063215b9b3a146100755780636ac55e6a146100a5578063715018a6146100e5575b600080fd5b61008f600480360381019061008a9190610b3b565b6101a6565b60405161009c9190610b9f565b60405180910390f35b3480156100b157600080fd5b506100cc60048036038101906100c79190610c18565b6103d3565b6040516100dc9493929190610cc4565b60405180910390f35b3480156100f157600080fd5b506100fa610623565b005b34801561010857600080fd5b50610111610637565b60405161011e9190610d3e565b60405180910390f35b34801561013357600080fd5b5061013c6106e6565b6040516101499190610d68565b60405180910390f35b34801561015e57600080fd5b5061016761070f565b6040516101749190610b9f565b60405180910390f35b34801561018957600080fd5b506101a4600480360381019061019f9190610c18565b610722565b005b6000662386f26fc1000034116101f1576040517f08c379a00000000000000000000000000000000000000000000000000000000081526004016101e890610df5565b60405180910390fd5b6040518060400160405280600a81526020017f556e766572696669656400000000000000000000000000000000000000000000815250826060018190525081600160003373ffffffffffffffffffffffffffffffffffffffff1673ffffffffffffffffffffffffffffffffffffffff1681526020019081526020016000206000820151816000019081610284919061102b565b50602082015181600101908161029a919061102b565b5060408201518160020190816102b0919061102b565b5060608201518160030190816102c6919061102b565b5090505060006102d46106e6565b90506000808273ffffffffffffffffffffffffffffffffffffffff16346040516102fd9061112e565b60006040518083038185875af1925050503d806000811461033a576040519150601f19603f3d011682016040523d82523d6000602084013e61033f565b606091505b509150915081610384576040517f08c379a000000000000000000000000000000000000000000000000000000000815260040161037b9061118f565b60405180910390fd5b7ff3ebf75fd5f596e15f4db9655f29b957c2500b6c3b975310cc55921e3be22ecd33866040015187600001516040516103bf939291906111af565b60405180910390a160019350505050919050565b60016020528060005260406000206000915090508060000180546103f690610e44565b80601f016020809104026020016040519081016040528092919081815260200182805461042290610e44565b801561046f5780601f106104445761010080835404028352916020019161046f565b820191906000526020600020905b81548152906001019060200180831161045257829003601f168201915b50505050509080600101805461048490610e44565b80601f01602080910402602001604051908101604052809291908181526020018280546104b090610e44565b80156104fd5780601f106104d2576101008083540402835291602001916104fd565b820191906000526020600020905b8154815290600101906020018083116104e057829003601f168201915b50505050509080600201805461051290610e44565b80601f016020809104026020016040519081016040528092919081815260200182805461053e90610e44565b801561058b5780601f106105605761010080835404028352916020019161058b565b820191906000526020600020905b81548152906001019060200180831161056e57829003601f168201915b5050505050908060030180546105a090610e44565b80601f01602080910402602001604051908101604052809291908181526020018280546105cc90610e44565b80156106195780601f106105ee57610100808354040283529160200191610619565b820191906000526020600020905b8154815290600101906020018083116105fc57829003601f168201915b5050505050905084565b61062b6107a5565b6106356000610823565b565b600080600080600080600560019054906101000a900473ffffffffffffffffffffffffffffffffffffffff1673ffffffffffffffffffffffffffffffffffffffff1663feaf968c6040518163ffffffff1660e01b815260040160a060405180830381865afa1580156106ad573d6000803e3d6000fd5b505050506040513d601f19601f820116820180604052508101906106d1919061128e565b94509450945094509450839550505050505090565b60008060009054906101000a900473ffffffffffffffffffffffffffffffffffffffff16905090565b600560009054906101000a900460ff1681565b61072a6107a5565b600073ffffffffffffffffffffffffffffffffffffffff168173ffffffffffffffffffffffffffffffffffffffff1603610799576040517f08c379a00000000000000000000000000000000000000000000000000000000081526004016107909061137b565b60405180910390fd5b6107a281610823565b50565b6107ad6108e7565b73ffffffffffffffffffffffffffffffffffffffff166107cb6106e6565b73ffffffffffffffffffffffffffffffffffffffff1614610821576040517f08c379a0000000000000000000000000000000000000000000000000000000008152600401610818906113e7565b60405180910390fd5b565b60008060009054906101000a900473ffffffffffffffffffffffffffffffffffffffff169050816000806101000a81548173ffffffffffffffffffffffffffffffffffffffff021916908373ffffffffffffffffffffffffffffffffffffffff1602179055508173ffffffffffffffffffffffffffffffffffffffff168173ffffffffffffffffffffffffffffffffffffffff167f8be0079c531659141344cd1fd0a4f28419497f9722a3daafe3b4186f6b6457e060405160405180910390a35050565b600033905090565b6000604051905090565b600080fd5b600080fd5b600080fd5b6000601f19601f8301169050919050565b7f4e487b7100000000000000000000000000000000000000000000000000000000600052604160045260246000fd5b61095182610908565b810181811067ffffffffffffffff821117156109705761096f610919565b5b80604052505050565b60006109836108ef565b905061098f8282610948565b919050565b600080fd5b600080fd5b600080fd5b600067ffffffffffffffff8211156109be576109bd610919565b5b6109c782610908565b9050602081019050919050565b82818337600083830152505050565b60006109f66109f1846109a3565b610979565b905082815260208101848484011115610a1257610a1161099e565b5b610a1d8482856109d4565b509392505050565b600082601f830112610a3a57610a39610999565b5b8135610a4a8482602086016109e3565b91505092915050565b600060808284031215610a6957610a68610903565b5b610a736080610979565b9050600082013567ffffffffffffffff811115610a9357610a92610994565b5b610a9f84828501610a25565b600083015250602082013567ffffffffffffffff811115610ac357610ac2610994565b5b610acf84828501610a25565b602083015250604082013567ffffffffffffffff811115610af357610af2610994565b5b610aff84828501610a25565b604083015250606082013567ffffffffffffffff811115610b2357610b22610994565b5b610b2f84828501610a25565b60608301525092915050565b600060208284031215610b5157610b506108f9565b5b600082013567ffffffffffffffff811115610b6f57610b6e6108fe565b5b610b7b84828501610a53565b91505092915050565b60008115159050919050565b610b9981610b84565b82525050565b6000602082019050610bb46000830184610b90565b92915050565b600073ffffffffffffffffffffffffffffffffffffffff82169050919050565b6000610be582610bba565b9050919050565b610bf581610bda565b8114610c0057600080fd5b50565b600081359050610c1281610bec565b92915050565b600060208284031215610c2e57610c2d6108f9565b5b6000610c3c84828501610c03565b91505092915050565b600081519050919050565b600082825260208201905092915050565b60005b83811015610c7f578082015181840152602081019050610c64565b60008484015250505050565b6000610c9682610c45565b610ca08185610c50565b9350610cb0818560208601610c61565b610cb981610908565b840191505092915050565b60006080820190508181036000830152610cde8187610c8b565b90508181036020830152610cf28186610c8b565b90508181036040830152610d068185610c8b565b90508181036060830152610d1a8184610c8b565b905095945050505050565b6000819050919050565b610d3881610d25565b82525050565b6000602082019050610d536000830184610d2f565b92915050565b610d6281610bda565b82525050565b6000602082019050610d7d6000830184610d59565b92915050565b7f46756e6374696f6e2063616c6c6564207769746820696e73756666696369656e60008201527f742066756e6473207472616e7366657272656400000000000000000000000000602082015250565b6000610ddf603383610c50565b9150610dea82610d83565b604082019050919050565b60006020820190508181036000830152610e0e81610dd2565b9050919050565b7f4e487b7100000000000000000000000000000000000000000000000000000000600052602260045260246000fd5b60006002820490506001821680610e5c57607f821691505b602082108103610e6f57610e6e610e15565b5b50919050565b60008190508160005260206000209050919050565b60006020601f8301049050919050565b600082821b905092915050565b600060088302610ed77fffffffffffffffffffffffffffffffffffffffffffffffffffffffffffffffff82610e9a565b610ee18683610e9a565b95508019841693508086168417925050509392505050565b6000819050919050565b6000819050919050565b6000610f28610f23610f1e84610ef9565b610f03565b610ef9565b9050919050565b6000819050919050565b610f4283610f0d565b610f56610f4e82610f2f565b848454610ea7565b825550505050565b600090565b610f6b610f5e565b610f76818484610f39565b505050565b5b81811015610f9a57610f8f600082610f63565b600181019050610f7c565b5050565b601f821115610fdf57610fb081610e75565b610fb984610e8a565b81016020851015610fc8578190505b610fdc610fd485610e8a565b830182610f7b565b50505b505050565b600082821c905092915050565b600061100260001984600802610fe4565b1980831691505092915050565b600061101b8383610ff1565b9150826002028217905092915050565b61103482610c45565b67ffffffffffffffff81111561104d5761104c610919565b5b6110578254610e44565b611062828285610f9e565b600060209050601f8311600181146110955760008415611083578287015190505b61108d858261100f565b8655506110f5565b601f1984166110a386610e75565b60005b828110156110cb578489015182556001820191506020850194506020810190506110a6565b868310156110e857848901516110e4601f891682610ff1565b8355505b6001600288020188555050505b505050505050565b600081905092915050565b50565b60006111186000836110fd565b915061112382611108565b600082019050919050565b60006111398261110b565b9150819050919050565b7f436f756c64206e6f74207472616e736665722066756e64730000000000000000600082015250565b6000611179601883610c50565b915061118482611143565b602082019050919050565b600060208201905081810360008301526111a88161116c565b9050919050565b60006060820190506111c46000830186610d59565b81810360208301526111d68185610c8b565b905081810360408301526111ea8184610c8b565b9050949350505050565b600069ffffffffffffffffffff82169050919050565b611213816111f4565b811461121e57600080fd5b50565b6000815190506112308161120a565b92915050565b61123f81610d25565b811461124a57600080fd5b50565b60008151905061125c81611236565b92915050565b61126b81610ef9565b811461127657600080fd5b50565b60008151905061128881611262565b92915050565b600080600080600060a086880312156112aa576112a96108f9565b5b60006112b888828901611221565b95505060206112c98882890161124d565b94505060406112da88828901611279565b93505060606112eb88828901611279565b92505060806112fc88828901611221565b9150509295509295909350565b7f4f776e61626c653a206e6577206f776e657220697320746865207a65726f206160008201527f6464726573730000000000000000000000000000000000000000000000000000602082015250565b6000611365602683610c50565b915061137082611309565b604082019050919050565b6000602082019050818103600083015261139481611358565b9050919050565b7f4f776e61626c653a2063616c6c6572206973206e6f7420746865206f776e6572600082015250565b60006113d1602083610c50565b91506113dc8261139b565b602082019050919050565b60006020820190508181036000830152611400816113c4565b905091905056fea2646970667358221220a2d53ab16657d9cfab902bcda8868973737bca46803728189ad4fed54e52678e64736f6c63430008120033",
  "immutableReferences": {},
  "source": "// SPDX-License-Identifier: MIT\n\npragma solidity ^0.8.0;\n\nimport \"@openzeppelin/contracts/access/Ownable.sol\";\nimport \"@openzeppelin/contracts/security/ReentrancyGuard.sol\";\nimport \"@chainlink/contracts/src/v0.8/interfaces/AggregatorV3Interface.sol\";\n\ncontract XKYC is Ownable{\n\n    //customer details\n    struct Customer{\n        string cnxid;\n        string email;\n        string kycDocCID;\n        string    verificationStatus; //pending, verified, rejected\n    }\n\n    //store customer details in mapping \n    mapping(address => Customer) public Customers;\n\n    //array of verified addresses\n    address[] verifiedMembers;\n\n    //array of pending verifications\n    address[] pendingVerifications;\n\n    //array of rejected verifications\n    address[] rejectedRequests;\n\n    bool public locked;\n\n    //chainlink pricefeed to check BNB price\n    AggregatorV3Interface internal priceFeed;\n\n    event detailsSubmitted(address customer, string kycDocCID, string cnxid);\n\n    /**\n     * Modifier to limit access to only the admin: \n     * @ONLYOWNER \n     */\n\n    //add means to check that only those registered with CNX can do it\n\n    /**\n     * Modifier to prevent reentrancy in functions: nonReentrant\n     */\n    constructor(){\n        //TODO: change the pricefeed address to that of the mainnet when changing to production:\n        //BNB MAINNET feed address: 0x0567F2323251f0Aab15c8dFb1967E4e8A7D42aeE\n        //current one is sepolia testnet pricefeed address for ETH/USD.\n        priceFeed = AggregatorV3Interface(0x694AA1769357215DE4FAC081bf1f309aDC325306);\n    }\n    //events:\n    //successfully submitted application\n    //successfully changed customer verification status to..${status}\n\n\n    //Customer functions: \n    //will be able to submit request for verification: add customer struct to mapping with address as key\n    //will be able to view verification status\n\n    //admin functions:\n    //verify address\n    //revoke verification\n    //view all addresses and their statuses? or search for an address to view its status\n\n    /**\n     * Get price from feed in int256, amount charged will be as returned here\n     */\n    function getBNBprice() public view returns (int256){\n        (uint80 roundID,\n         int256 answer,\n          uint256 startedAt, \n          uint256 timeStamp,\n          uint80 answeredInRound) = priceFeed.latestRoundData();\n\n        return answer;\n    }\n\n    function submitDetails(Customer memory details) public payable returns (bool){\n        //will charge a fee of about 1.56USD in total, inclusive of gas\n        //set gas limit = 0.29USD\n        //fetch live price from chainlink, calculate using that price\n        require(msg.value> 0.01 ether, \"Function called with insufficient funds transferred\" );\n        details.verificationStatus = 'Unverified';\n        Customers[msg.sender] = details;\n        address payable owner = payable(owner());\n      //send tx money to owner's wallet\n\n      (bool sent, bytes memory data) = owner.call{value:msg.value}(\"\");\n        require(sent, \"Could not transfer funds\");\n       \n        emit detailsSubmitted(msg.sender, details.kycDocCID, details.cnxid);\n        return true;\n    }\n}\n",
  "sourcePath": "/home/iandev/xxkyc/xkyc/truffle/contracts/xkyc.sol",
  "compiler": {
    "name": "solc",
    "version": "0.8.18+commit.87f61d96.Emscripten.clang"
  },
  "schemaVersion": "3.4.14",
  "updatedAt": "2023-07-27T14:40:01.391Z",
  "networkType": "ethereum",
  "devdoc": {
    "kind": "dev",
    "methods": {
      "owner()": {
        "details": "Returns the address of the current owner."
      },
      "renounceOwnership()": {
        "details": "Leaves the contract without owner. It will not be possible to call `onlyOwner` functions. Can only be called by the current owner. NOTE: Renouncing ownership will leave the contract without an owner, thereby disabling any functionality that is only available to the owner."
      },
      "transferOwnership(address)": {
        "details": "Transfers ownership of the contract to a new account (`newOwner`). Can only be called by the current owner."
      }
    },
    "version": 1
  },
  "userdoc": {
    "kind": "user",
    "methods": {
      "constructor": {
        "notice": "Modifier to prevent reentrancy in functions: nonReentrant"
      },
      "getBNBprice()": {
        "notice": "Get price from feed in int256, amount charged will be as returned here"
      }
    },
    "version": 1
  }
}