{
  "contractName": "XKYC",
  "abi": [
    {
      "inputs": [],
      "stateMutability": "nonpayable",
      "type": "constructor"
    },
    {
      "anonymous": false,
      "inputs": [
        {
          "indexed": true,
          "internalType": "address",
          "name": "previousOwner",
          "type": "address"
        },
        {
          "indexed": true,
          "internalType": "address",
          "name": "newOwner",
          "type": "address"
        }
      ],
      "name": "OwnershipTransferred",
      "type": "event"
    },
    {
      "anonymous": false,
      "inputs": [
        {
          "indexed": false,
          "internalType": "address",
          "name": "customer",
          "type": "address"
        },
        {
          "indexed": false,
          "internalType": "string",
          "name": "kycDocCID",
          "type": "string"
        },
        {
          "indexed": false,
          "internalType": "string",
          "name": "cnxid",
          "type": "string"
        }
      ],
      "name": "detailsSubmitted",
      "type": "event"
    },
    {
      "inputs": [],
      "name": "owner",
      "outputs": [
        {
          "internalType": "address",
          "name": "",
          "type": "address"
        }
      ],
      "stateMutability": "view",
      "type": "function",
      "constant": true
    },
    {
      "inputs": [
        {
          "internalType": "address",
          "name": "dest",
          "type": "address"
        }
      ],
      "name": "payments",
      "outputs": [
        {
          "internalType": "uint256",
          "name": "",
          "type": "uint256"
        }
      ],
      "stateMutability": "view",
      "type": "function",
      "constant": true
    },
    {
      "inputs": [],
      "name": "renounceOwnership",
      "outputs": [],
      "stateMutability": "nonpayable",
      "type": "function"
    },
    {
      "inputs": [
        {
          "internalType": "address",
          "name": "newOwner",
          "type": "address"
        }
      ],
      "name": "transferOwnership",
      "outputs": [],
      "stateMutability": "nonpayable",
      "type": "function"
    },
    {
      "inputs": [
        {
          "internalType": "address payable",
          "name": "payee",
          "type": "address"
        }
      ],
      "name": "withdrawPayments",
      "outputs": [],
      "stateMutability": "nonpayable",
      "type": "function"
    },
    {
      "inputs": [],
      "name": "getBNBprice",
      "outputs": [
        {
          "internalType": "int256",
          "name": "",
          "type": "int256"
        }
      ],
      "stateMutability": "view",
      "type": "function",
      "constant": true
    },
    {
      "inputs": [
        {
          "components": [
            {
              "internalType": "string",
              "name": "cnxid",
              "type": "string"
            },
            {
              "internalType": "string",
              "name": "email",
              "type": "string"
            },
            {
              "internalType": "string",
              "name": "kycDocCID",
              "type": "string"
            },
            {
              "internalType": "string",
              "name": "verificationStatus",
              "type": "string"
            },
            {
              "internalType": "bool",
              "name": "isInitialized",
              "type": "bool"
            }
          ],
          "internalType": "struct XKYC.Customer",
          "name": "details",
          "type": "tuple"
        }
      ],
      "name": "submitDetails",
      "outputs": [
        {
          "internalType": "bool",
          "name": "",
          "type": "bool"
        }
      ],
      "stateMutability": "payable",
      "type": "function",
      "payable": true
    },
    {
      "inputs": [],
      "name": "getVerificationStatus",
      "outputs": [
        {
          "internalType": "string",
          "name": "",
          "type": "string"
        }
      ],
      "stateMutability": "view",
      "type": "function",
      "constant": true
    },
    {
      "inputs": [],
      "name": "getUnverifiedMembers",
      "outputs": [
        {
          "components": [
            {
              "components": [
                {
                  "internalType": "string",
                  "name": "cnxid",
                  "type": "string"
                },
                {
                  "internalType": "string",
                  "name": "email",
                  "type": "string"
                },
                {
                  "internalType": "string",
                  "name": "kycDocCID",
                  "type": "string"
                },
                {
                  "internalType": "string",
                  "name": "verificationStatus",
                  "type": "string"
                },
                {
                  "internalType": "bool",
                  "name": "isInitialized",
                  "type": "bool"
                }
              ],
              "internalType": "struct XKYC.Customer",
              "name": "details",
              "type": "tuple"
            },
            {
              "internalType": "address",
              "name": "customerAddress",
              "type": "address"
            }
          ],
          "internalType": "struct XKYC.Details_x_Address[]",
          "name": "",
          "type": "tuple[]"
        }
      ],
      "stateMutability": "view",
      "type": "function",
      "constant": true
    },
    {
      "inputs": [
        {
          "internalType": "address",
          "name": "member",
          "type": "address"
        },
        {
          "internalType": "string",
          "name": "verificationStatus",
          "type": "string"
        }
      ],
      "name": "verifyMember",
      "outputs": [
        {
          "internalType": "string",
          "name": "",
          "type": "string"
        }
      ],
      "stateMutability": "nonpayable",
      "type": "function"
    },
    {
      "inputs": [],
      "name": "withdraw",
      "outputs": [
        {
          "internalType": "string",
          "name": "",
          "type": "string"
        }
      ],
      "stateMutability": "nonpayable",
      "type": "function"
    },
    {
      "inputs": [],
      "name": "viewPendingWithdrawal",
      "outputs": [
        {
          "internalType": "uint256",
          "name": "",
          "type": "uint256"
        }
      ],
      "stateMutability": "view",
      "type": "function",
      "constant": true
    },
    {
      "inputs": [
        {
          "internalType": "address",
          "name": "_payee",
          "type": "address"
        }
      ],
      "name": "changePayee",
      "outputs": [
        {
          "internalType": "string",
          "name": "",
          "type": "string"
        }
      ],
      "stateMutability": "nonpayable",
      "type": "function"
    }
  ],
  "bytecode": "0x60a06040526040518060400160405280600781526020017f5375636365737300000000000000000000000000000000000000000000000000815250600990816200004a9190620004e3565b503480156200005857600080fd5b50620000796200006d6200018f60201b60201c565b6200019760201b60201c565b60405162000087906200025b565b604051809103906000f080158015620000a4573d6000803e3d6000fd5b5073ffffffffffffffffffffffffffffffffffffffff1660808173ffffffffffffffffffffffffffffffffffffffff168152505060018081905550730567f2323251f0aab15c8dfb1967e4e8a7d42aee600a60006101000a81548173ffffffffffffffffffffffffffffffffffffffff021916908373ffffffffffffffffffffffffffffffffffffffff16021790555073cadaa5fb0b4e0eb3c847848ca6f2d136d347d8a7600860006101000a81548173ffffffffffffffffffffffffffffffffffffffff021916908373ffffffffffffffffffffffffffffffffffffffff160217905550620005ca565b600033905090565b60008060009054906101000a900473ffffffffffffffffffffffffffffffffffffffff169050816000806101000a81548173ffffffffffffffffffffffffffffffffffffffff021916908373ffffffffffffffffffffffffffffffffffffffff1602179055508173ffffffffffffffffffffffffffffffffffffffff168173ffffffffffffffffffffffffffffffffffffffff167f8be0079c531659141344cd1fd0a4f28419497f9722a3daafe3b4186f6b6457e060405160405180910390a35050565b610ba18062002aaf83390190565b600081519050919050565b7f4e487b7100000000000000000000000000000000000000000000000000000000600052604160045260246000fd5b7f4e487b7100000000000000000000000000000000000000000000000000000000600052602260045260246000fd5b60006002820490506001821680620002eb57607f821691505b602082108103620003015762000300620002a3565b5b50919050565b60008190508160005260206000209050919050565b60006020601f8301049050919050565b600082821b905092915050565b6000600883026200036b7fffffffffffffffffffffffffffffffffffffffffffffffffffffffffffffffff826200032c565b6200037786836200032c565b95508019841693508086168417925050509392505050565b6000819050919050565b6000819050919050565b6000620003c4620003be620003b8846200038f565b62000399565b6200038f565b9050919050565b6000819050919050565b620003e083620003a3565b620003f8620003ef82620003cb565b84845462000339565b825550505050565b600090565b6200040f62000400565b6200041c818484620003d5565b505050565b5b8181101562000444576200043860008262000405565b60018101905062000422565b5050565b601f82111562000493576200045d8162000307565b62000468846200031c565b8101602085101562000478578190505b6200049062000487856200031c565b83018262000421565b50505b505050565b600082821c905092915050565b6000620004b86000198460080262000498565b1980831691505092915050565b6000620004d38383620004a5565b9150826002028217905092915050565b620004ee8262000269565b67ffffffffffffffff8111156200050a576200050962000274565b5b620005168254620002d2565b6200052382828562000448565b600060209050601f8311600181146200055b576000841562000546578287015190505b620005528582620004c5565b865550620005c2565b601f1984166200056b8662000307565b60005b8281101562000595578489015182556001820191506020850194506020810190506200056e565b86831015620005b55784890151620005b1601f891682620004a5565b8355505b6001600288020188555050505b505050505050565b6080516124bb620005f4600039600081816103f8015281816110d4015261138901526124bb6000f3fe6080604052600436106100c25760003560e01c8063715018a61161007f578063a15bcbf111610059578063a15bcbf114610246578063aebfcf5314610276578063e2982c21146102b3578063f2fde38b146102f0576100c2565b8063715018a6146101d957806381f239b0146101f05780638da5cb5b1461021b576100c2565b80631c1bc850146100c757806331b3eb94146101045780633200e26d1461012d5780633ccfd60b1461015857806340aafff01461018357806350138a20146101ae575b600080fd5b3480156100d357600080fd5b506100ee60048036038101906100e9919061155e565b610319565b6040516100fb919061161b565b60405180910390f35b34801561011057600080fd5b5061012b6004803603810190610126919061167b565b6103f6565b005b34801561013957600080fd5b50610142610484565b60405161014f919061161b565b60405180910390f35b34801561016457600080fd5b5061016d6105e5565b60405161017a919061161b565b60405180910390f35b34801561018f57600080fd5b506101986106a2565b6040516101a591906116c1565b60405180910390f35b3480156101ba57600080fd5b506101c36106d4565b6040516101d091906118da565b60405180910390f35b3480156101e557600080fd5b506101ee610a08565b005b3480156101fc57600080fd5b50610205610a1c565b6040516102129190611915565b60405180910390f35b34801561022757600080fd5b50610230610acb565b60405161023d919061193f565b60405180910390f35b610260600480360381019061025b9190611bc1565b610af4565b60405161026d9190611c19565b60405180910390f35b34801561028257600080fd5b5061029d60048036038101906102989190611c34565b610e68565b6040516102aa919061161b565b60405180910390f35b3480156102bf57600080fd5b506102da60048036038101906102d5919061155e565b6110d0565b6040516102e791906116c1565b60405180910390f35b3480156102fc57600080fd5b506103176004803603810190610312919061155e565b611173565b005b60606103236111f6565b81600860006101000a81548173ffffffffffffffffffffffffffffffffffffffff021916908373ffffffffffffffffffffffffffffffffffffffff1602179055506009805461037190611cbf565b80601f016020809104026020016040519081016040528092919081815260200182805461039d90611cbf565b80156103ea5780601f106103bf576101008083540402835291602001916103ea565b820191906000526020600020905b8154815290600101906020018083116103cd57829003601f168201915b50505050509050919050565b7f000000000000000000000000000000000000000000000000000000000000000073ffffffffffffffffffffffffffffffffffffffff166351cff8d9826040518263ffffffff1660e01b815260040161044f9190611cff565b600060405180830381600087803b15801561046957600080fd5b505af115801561047d573d6000803e3d6000fd5b5050505050565b6060600360003373ffffffffffffffffffffffffffffffffffffffff1673ffffffffffffffffffffffffffffffffffffffff16815260200190815260200160002060040160009054906101000a900460ff16610515576040517f08c379a000000000000000000000000000000000000000000000000000000000815260040161050c90611d66565b60405180910390fd5b600360003373ffffffffffffffffffffffffffffffffffffffff1673ffffffffffffffffffffffffffffffffffffffff168152602001908152602001600020600301805461056290611cbf565b80601f016020809104026020016040519081016040528092919081815260200182805461058e90611cbf565b80156105db5780601f106105b0576101008083540402835291602001916105db565b820191906000526020600020905b8154815290600101906020018083116105be57829003601f168201915b5050505050905090565b6060610612600860009054906101000a900473ffffffffffffffffffffffffffffffffffffffff166103f6565b6009805461061f90611cbf565b80601f016020809104026020016040519081016040528092919081815260200182805461064b90611cbf565b80156106985780601f1061066d57610100808354040283529160200191610698565b820191906000526020600020905b81548152906001019060200180831161067b57829003601f168201915b5050505050905090565b60006106cf600860009054906101000a900473ffffffffffffffffffffffffffffffffffffffff166110d0565b905090565b60606106de6111f6565b6006805480602002602001604051908101604052809291908181526020016000905b828210156109ff5783829060005260206000209060060201604051806040016040529081600082016040518060a001604052908160008201805461074390611cbf565b80601f016020809104026020016040519081016040528092919081815260200182805461076f90611cbf565b80156107bc5780601f10610791576101008083540402835291602001916107bc565b820191906000526020600020905b81548152906001019060200180831161079f57829003601f168201915b505050505081526020016001820180546107d590611cbf565b80601f016020809104026020016040519081016040528092919081815260200182805461080190611cbf565b801561084e5780601f106108235761010080835404028352916020019161084e565b820191906000526020600020905b81548152906001019060200180831161083157829003601f168201915b5050505050815260200160028201805461086790611cbf565b80601f016020809104026020016040519081016040528092919081815260200182805461089390611cbf565b80156108e05780601f106108b5576101008083540402835291602001916108e0565b820191906000526020600020905b8154815290600101906020018083116108c357829003601f168201915b505050505081526020016003820180546108f990611cbf565b80601f016020809104026020016040519081016040528092919081815260200182805461092590611cbf565b80156109725780601f1061094757610100808354040283529160200191610972565b820191906000526020600020905b81548152906001019060200180831161095557829003601f168201915b505050505081526020016004820160009054906101000a900460ff16151515158152505081526020016005820160009054906101000a900473ffffffffffffffffffffffffffffffffffffffff1673ffffffffffffffffffffffffffffffffffffffff1673ffffffffffffffffffffffffffffffffffffffff168152505081526020019060010190610700565b50505050905090565b610a106111f6565b610a1a6000611274565b565b600080600080600080600a60009054906101000a900473ffffffffffffffffffffffffffffffffffffffff1673ffffffffffffffffffffffffffffffffffffffff1663feaf968c6040518163ffffffff1660e01b815260040160a060405180830381865afa158015610a92573d6000803e3d6000fd5b505050506040513d601f19601f82011682018060405250810190610ab69190611e20565b94509450945094509450839550505050505090565b60008060009054906101000a900473ffffffffffffffffffffffffffffffffffffffff16905090565b6000610afe611338565b660e90eda39440003411610b47576040517f08c379a0000000000000000000000000000000000000000000000000000000008152600401610b3e90611f0d565b60405180910390fd5b6040518060400160405280600781526020017f70656e64696e67000000000000000000000000000000000000000000000000008152508260600181905250600182608001901515908115158152505081600360003373ffffffffffffffffffffffffffffffffffffffff1673ffffffffffffffffffffffffffffffffffffffff1681526020019081526020016000206000820151816000019081610beb91906120d9565b506020820151816001019081610c0191906120d9565b506040820151816002019081610c1791906120d9565b506060820151816003019081610c2d91906120d9565b5060808201518160040160006101000a81548160ff021916908315150217905550905050610c59611428565b82816000018190525033816020019073ffffffffffffffffffffffffffffffffffffffff16908173ffffffffffffffffffffffffffffffffffffffff168152505060068190806001815401808255809150506001900390600052602060002090600602016000909190919091506000820151816000016000820151816000019081610ce491906120d9565b506020820151816001019081610cfa91906120d9565b506040820151816002019081610d1091906120d9565b506060820151816003019081610d2691906120d9565b5060808201518160040160006101000a81548160ff021916908315150217905550505060208201518160050160006101000a81548173ffffffffffffffffffffffffffffffffffffffff021916908373ffffffffffffffffffffffffffffffffffffffff16021790555050506001600680549050610da491906121da565b600460003373ffffffffffffffffffffffffffffffffffffffff1673ffffffffffffffffffffffffffffffffffffffff16815260200190815260200160002081905550610e13600860009054906101000a900473ffffffffffffffffffffffffffffffffffffffff1634611387565b7ff3ebf75fd5f596e15f4db9655f29b957c2500b6c3b975310cc55921e3be22ecd3384604001518560000151604051610e4e9392919061220e565b60405180910390a16001915050610e63611417565b919050565b6060610e726111f6565b600360008473ffffffffffffffffffffffffffffffffffffffff1673ffffffffffffffffffffffffffffffffffffffff16815260200190815260200160002060040160009054906101000a900460ff16610f01576040517f08c379a0000000000000000000000000000000000000000000000000000000008152600401610ef89061229f565b60405180910390fd5b81600360008573ffffffffffffffffffffffffffffffffffffffff1673ffffffffffffffffffffffffffffffffffffffff1681526020019081526020016000206003019081610f5091906120d9565b506000600460008573ffffffffffffffffffffffffffffffffffffffff1673ffffffffffffffffffffffffffffffffffffffff16815260200190815260200160002054905060068181548110610fa957610fa86122bf565b5b9060005260206000209060060201600080820160008082016000610fcd919061145e565b600182016000610fdd919061145e565b600282016000610fed919061145e565b600382016000610ffd919061145e565b6004820160006101000a81549060ff021916905550506005820160006101000a81549073ffffffffffffffffffffffffffffffffffffffff021916905550506009805461104990611cbf565b80601f016020809104026020016040519081016040528092919081815260200182805461107590611cbf565b80156110c25780601f10611097576101008083540402835291602001916110c2565b820191906000526020600020905b8154815290600101906020018083116110a557829003601f168201915b505050505091505092915050565b60007f000000000000000000000000000000000000000000000000000000000000000073ffffffffffffffffffffffffffffffffffffffff1663e3a9db1a836040518263ffffffff1660e01b815260040161112b919061193f565b602060405180830381865afa158015611148573d6000803e3d6000fd5b505050506040513d601f19601f8201168201806040525081019061116c91906122ee565b9050919050565b61117b6111f6565b600073ffffffffffffffffffffffffffffffffffffffff168173ffffffffffffffffffffffffffffffffffffffff16036111ea576040517f08c379a00000000000000000000000000000000000000000000000000000000081526004016111e19061238d565b60405180910390fd5b6111f381611274565b50565b6111fe611420565b73ffffffffffffffffffffffffffffffffffffffff1661121c610acb565b73ffffffffffffffffffffffffffffffffffffffff1614611272576040517f08c379a0000000000000000000000000000000000000000000000000000000008152600401611269906123f9565b60405180910390fd5b565b60008060009054906101000a900473ffffffffffffffffffffffffffffffffffffffff169050816000806101000a81548173ffffffffffffffffffffffffffffffffffffffff021916908373ffffffffffffffffffffffffffffffffffffffff1602179055508173ffffffffffffffffffffffffffffffffffffffff168173ffffffffffffffffffffffffffffffffffffffff167f8be0079c531659141344cd1fd0a4f28419497f9722a3daafe3b4186f6b6457e060405160405180910390a35050565b60026001540361137d576040517f08c379a000000000000000000000000000000000000000000000000000000000815260040161137490612465565b60405180910390fd5b6002600181905550565b7f000000000000000000000000000000000000000000000000000000000000000073ffffffffffffffffffffffffffffffffffffffff1663f340fa0182846040518363ffffffff1660e01b81526004016113e1919061193f565b6000604051808303818588803b1580156113fa57600080fd5b505af115801561140e573d6000803e3d6000fd5b50505050505050565b60018081905550565b600033905090565b604051806040016040528061143b61149e565b8152602001600073ffffffffffffffffffffffffffffffffffffffff1681525090565b50805461146a90611cbf565b6000825580601f1061147c575061149b565b601f01602090049060005260206000209081019061149a91906114cf565b5b50565b6040518060a00160405280606081526020016060815260200160608152602001606081526020016000151581525090565b5b808211156114e85760008160009055506001016114d0565b5090565b6000604051905090565b600080fd5b600080fd5b600073ffffffffffffffffffffffffffffffffffffffff82169050919050565b600061152b82611500565b9050919050565b61153b81611520565b811461154657600080fd5b50565b60008135905061155881611532565b92915050565b600060208284031215611574576115736114f6565b5b600061158284828501611549565b91505092915050565b600081519050919050565b600082825260208201905092915050565b60005b838110156115c55780820151818401526020810190506115aa565b60008484015250505050565b6000601f19601f8301169050919050565b60006115ed8261158b565b6115f78185611596565b93506116078185602086016115a7565b611610816115d1565b840191505092915050565b6000602082019050818103600083015261163581846115e2565b905092915050565b600061164882611500565b9050919050565b6116588161163d565b811461166357600080fd5b50565b6000813590506116758161164f565b92915050565b600060208284031215611691576116906114f6565b5b600061169f84828501611666565b91505092915050565b6000819050919050565b6116bb816116a8565b82525050565b60006020820190506116d660008301846116b2565b92915050565b600081519050919050565b600082825260208201905092915050565b6000819050602082019050919050565b600082825260208201905092915050565b60006117248261158b565b61172e8185611708565b935061173e8185602086016115a7565b611747816115d1565b840191505092915050565b60008115159050919050565b61176781611752565b82525050565b600060a083016000830151848203600086015261178a8282611719565b915050602083015184820360208601526117a48282611719565b915050604083015184820360408601526117be8282611719565b915050606083015184820360608601526117d88282611719565b91505060808301516117ed608086018261175e565b508091505092915050565b61180181611520565b82525050565b60006040830160008301518482036000860152611824828261176d565b915050602083015161183960208601826117f8565b508091505092915050565b60006118508383611807565b905092915050565b6000602082019050919050565b6000611870826116dc565b61187a81856116e7565b93508360208202850161188c856116f8565b8060005b858110156118c857848403895281516118a98582611844565b94506118b483611858565b925060208a01995050600181019050611890565b50829750879550505050505092915050565b600060208201905081810360008301526118f48184611865565b905092915050565b6000819050919050565b61190f816118fc565b82525050565b600060208201905061192a6000830184611906565b92915050565b61193981611520565b82525050565b60006020820190506119546000830184611930565b92915050565b600080fd5b7f4e487b7100000000000000000000000000000000000000000000000000000000600052604160045260246000fd5b611997826115d1565b810181811067ffffffffffffffff821117156119b6576119b561195f565b5b80604052505050565b60006119c96114ec565b90506119d5828261198e565b919050565b600080fd5b600080fd5b600080fd5b600067ffffffffffffffff821115611a0457611a0361195f565b5b611a0d826115d1565b9050602081019050919050565b82818337600083830152505050565b6000611a3c611a37846119e9565b6119bf565b905082815260208101848484011115611a5857611a576119e4565b5b611a63848285611a1a565b509392505050565b600082601f830112611a8057611a7f6119df565b5b8135611a90848260208601611a29565b91505092915050565b611aa281611752565b8114611aad57600080fd5b50565b600081359050611abf81611a99565b92915050565b600060a08284031215611adb57611ada61195a565b5b611ae560a06119bf565b9050600082013567ffffffffffffffff811115611b0557611b046119da565b5b611b1184828501611a6b565b600083015250602082013567ffffffffffffffff811115611b3557611b346119da565b5b611b4184828501611a6b565b602083015250604082013567ffffffffffffffff811115611b6557611b646119da565b5b611b7184828501611a6b565b604083015250606082013567ffffffffffffffff811115611b9557611b946119da565b5b611ba184828501611a6b565b6060830152506080611bb584828501611ab0565b60808301525092915050565b600060208284031215611bd757611bd66114f6565b5b600082013567ffffffffffffffff811115611bf557611bf46114fb565b5b611c0184828501611ac5565b91505092915050565b611c1381611752565b82525050565b6000602082019050611c2e6000830184611c0a565b92915050565b60008060408385031215611c4b57611c4a6114f6565b5b6000611c5985828601611549565b925050602083013567ffffffffffffffff811115611c7a57611c796114fb565b5b611c8685828601611a6b565b9150509250929050565b7f4e487b7100000000000000000000000000000000000000000000000000000000600052602260045260246000fd5b60006002820490506001821680611cd757607f821691505b602082108103611cea57611ce9611c90565b5b50919050565b611cf98161163d565b82525050565b6000602082019050611d146000830184611cf0565b92915050565b7f41646472657373206e6f74207265676973746572656400000000000000000000600082015250565b6000611d50601683611596565b9150611d5b82611d1a565b602082019050919050565b60006020820190508181036000830152611d7f81611d43565b9050919050565b600069ffffffffffffffffffff82169050919050565b611da581611d86565b8114611db057600080fd5b50565b600081519050611dc281611d9c565b92915050565b611dd1816118fc565b8114611ddc57600080fd5b50565b600081519050611dee81611dc8565b92915050565b611dfd816116a8565b8114611e0857600080fd5b50565b600081519050611e1a81611df4565b92915050565b600080600080600060a08688031215611e3c57611e3b6114f6565b5b6000611e4a88828901611db3565b9550506020611e5b88828901611ddf565b9450506040611e6c88828901611e0b565b9350506060611e7d88828901611e0b565b9250506080611e8e88828901611db3565b9150509295509295909350565b7f46756e6374696f6e2063616c6c6564207769746820696e73756666696369656e60008201527f742066756e647300000000000000000000000000000000000000000000000000602082015250565b6000611ef7602783611596565b9150611f0282611e9b565b604082019050919050565b60006020820190508181036000830152611f2681611eea565b9050919050565b60008190508160005260206000209050919050565b60006020601f8301049050919050565b600082821b905092915050565b600060088302611f8f7fffffffffffffffffffffffffffffffffffffffffffffffffffffffffffffffff82611f52565b611f998683611f52565b95508019841693508086168417925050509392505050565b6000819050919050565b6000611fd6611fd1611fcc846116a8565b611fb1565b6116a8565b9050919050565b6000819050919050565b611ff083611fbb565b612004611ffc82611fdd565b848454611f5f565b825550505050565b600090565b61201961200c565b612024818484611fe7565b505050565b5b818110156120485761203d600082612011565b60018101905061202a565b5050565b601f82111561208d5761205e81611f2d565b61206784611f42565b81016020851015612076578190505b61208a61208285611f42565b830182612029565b50505b505050565b600082821c905092915050565b60006120b060001984600802612092565b1980831691505092915050565b60006120c9838361209f565b9150826002028217905092915050565b6120e28261158b565b67ffffffffffffffff8111156120fb576120fa61195f565b5b6121058254611cbf565b61211082828561204c565b600060209050601f8311600181146121435760008415612131578287015190505b61213b85826120bd565b8655506121a3565b601f19841661215186611f2d565b60005b8281101561217957848901518255600182019150602085019450602081019050612154565b868310156121965784890151612192601f89168261209f565b8355505b6001600288020188555050505b505050505050565b7f4e487b7100000000000000000000000000000000000000000000000000000000600052601160045260246000fd5b60006121e5826116a8565b91506121f0836116a8565b9250828203905081811115612208576122076121ab565b5b92915050565b60006060820190506122236000830186611930565b818103602083015261223581856115e2565b9050818103604083015261224981846115e2565b9050949350505050565b7f437573746f6d6572206e6f742072656769737465726564000000000000000000600082015250565b6000612289601783611596565b915061229482612253565b602082019050919050565b600060208201905081810360008301526122b88161227c565b9050919050565b7f4e487b7100000000000000000000000000000000000000000000000000000000600052603260045260246000fd5b600060208284031215612304576123036114f6565b5b600061231284828501611e0b565b91505092915050565b7f4f776e61626c653a206e6577206f776e657220697320746865207a65726f206160008201527f6464726573730000000000000000000000000000000000000000000000000000602082015250565b6000612377602683611596565b91506123828261231b565b604082019050919050565b600060208201905081810360008301526123a68161236a565b9050919050565b7f4f776e61626c653a2063616c6c6572206973206e6f7420746865206f776e6572600082015250565b60006123e3602083611596565b91506123ee826123ad565b602082019050919050565b60006020820190508181036000830152612412816123d6565b9050919050565b7f5265656e7472616e637947756172643a207265656e7472616e742063616c6c00600082015250565b600061244f601f83611596565b915061245a82612419565b602082019050919050565b6000602082019050818103600083015261247e81612442565b905091905056fea2646970667358221220578a88a81fa002be9025cb1a76dbb59ef1c53edce4b6f7ae7032d188201af50f64736f6c63430008120033608060405234801561001057600080fd5b5061002d61002261003260201b60201c565b61003a60201b60201c565b6100fe565b600033905090565b60008060009054906101000a900473ffffffffffffffffffffffffffffffffffffffff169050816000806101000a81548173ffffffffffffffffffffffffffffffffffffffff021916908373ffffffffffffffffffffffffffffffffffffffff1602179055508173ffffffffffffffffffffffffffffffffffffffff168173ffffffffffffffffffffffffffffffffffffffff167f8be0079c531659141344cd1fd0a4f28419497f9722a3daafe3b4186f6b6457e060405160405180910390a35050565b610a948061010d6000396000f3fe6080604052600436106100555760003560e01c806351cff8d91461005a578063715018a6146100835780638da5cb5b1461009a578063e3a9db1a146100c5578063f2fde38b14610102578063f340fa011461012b575b600080fd5b34801561006657600080fd5b50610081600480360381019061007c91906106b2565b610147565b005b34801561008f57600080fd5b50610098610253565b005b3480156100a657600080fd5b506100af610267565b6040516100bc9190610700565b60405180910390f35b3480156100d157600080fd5b506100ec60048036038101906100e79190610747565b610290565b6040516100f9919061078d565b60405180910390f35b34801561010e57600080fd5b5061012960048036038101906101249190610747565b6102d9565b005b61014560048036038101906101409190610747565b61035c565b005b61014f610411565b6000600160008373ffffffffffffffffffffffffffffffffffffffff1673ffffffffffffffffffffffffffffffffffffffff1681526020019081526020016000205490506000600160008473ffffffffffffffffffffffffffffffffffffffff1673ffffffffffffffffffffffffffffffffffffffff16815260200190815260200160002081905550610201818373ffffffffffffffffffffffffffffffffffffffff1661048f90919063ffffffff16565b8173ffffffffffffffffffffffffffffffffffffffff167f7084f5476618d8e60b11ef0d7d3f06914655adb8793e28ff7f018d4c76d505d582604051610247919061078d565b60405180910390a25050565b61025b610411565b6102656000610583565b565b60008060009054906101000a900473ffffffffffffffffffffffffffffffffffffffff16905090565b6000600160008373ffffffffffffffffffffffffffffffffffffffff1673ffffffffffffffffffffffffffffffffffffffff168152602001908152602001600020549050919050565b6102e1610411565b600073ffffffffffffffffffffffffffffffffffffffff168173ffffffffffffffffffffffffffffffffffffffff1603610350576040517f08c379a00000000000000000000000000000000000000000000000000000000081526004016103479061082b565b60405180910390fd5b61035981610583565b50565b610364610411565b600034905080600160008473ffffffffffffffffffffffffffffffffffffffff1673ffffffffffffffffffffffffffffffffffffffff16815260200190815260200160002060008282546103b8919061087a565b925050819055508173ffffffffffffffffffffffffffffffffffffffff167f2da466a7b24304f47e87fa2e1e5a81b9831ce54fec19055ce277ca2f39ba42c482604051610405919061078d565b60405180910390a25050565b610419610647565b73ffffffffffffffffffffffffffffffffffffffff16610437610267565b73ffffffffffffffffffffffffffffffffffffffff161461048d576040517f08c379a0000000000000000000000000000000000000000000000000000000008152600401610484906108fa565b60405180910390fd5b565b804710156104d2576040517f08c379a00000000000000000000000000000000000000000000000000000000081526004016104c990610966565b60405180910390fd5b60008273ffffffffffffffffffffffffffffffffffffffff16826040516104f8906109b7565b60006040518083038185875af1925050503d8060008114610535576040519150601f19603f3d011682016040523d82523d6000602084013e61053a565b606091505b505090508061057e576040517f08c379a000000000000000000000000000000000000000000000000000000000815260040161057590610a3e565b60405180910390fd5b505050565b60008060009054906101000a900473ffffffffffffffffffffffffffffffffffffffff169050816000806101000a81548173ffffffffffffffffffffffffffffffffffffffff021916908373ffffffffffffffffffffffffffffffffffffffff1602179055508173ffffffffffffffffffffffffffffffffffffffff168173ffffffffffffffffffffffffffffffffffffffff167f8be0079c531659141344cd1fd0a4f28419497f9722a3daafe3b4186f6b6457e060405160405180910390a35050565b600033905090565b600080fd5b600073ffffffffffffffffffffffffffffffffffffffff82169050919050565b600061067f82610654565b9050919050565b61068f81610674565b811461069a57600080fd5b50565b6000813590506106ac81610686565b92915050565b6000602082840312156106c8576106c761064f565b5b60006106d68482850161069d565b91505092915050565b60006106ea82610654565b9050919050565b6106fa816106df565b82525050565b600060208201905061071560008301846106f1565b92915050565b610724816106df565b811461072f57600080fd5b50565b6000813590506107418161071b565b92915050565b60006020828403121561075d5761075c61064f565b5b600061076b84828501610732565b91505092915050565b6000819050919050565b61078781610774565b82525050565b60006020820190506107a2600083018461077e565b92915050565b600082825260208201905092915050565b7f4f776e61626c653a206e6577206f776e657220697320746865207a65726f206160008201527f6464726573730000000000000000000000000000000000000000000000000000602082015250565b60006108156026836107a8565b9150610820826107b9565b604082019050919050565b6000602082019050818103600083015261084481610808565b9050919050565b7f4e487b7100000000000000000000000000000000000000000000000000000000600052601160045260246000fd5b600061088582610774565b915061089083610774565b92508282019050808211156108a8576108a761084b565b5b92915050565b7f4f776e61626c653a2063616c6c6572206973206e6f7420746865206f776e6572600082015250565b60006108e46020836107a8565b91506108ef826108ae565b602082019050919050565b60006020820190508181036000830152610913816108d7565b9050919050565b7f416464726573733a20696e73756666696369656e742062616c616e6365000000600082015250565b6000610950601d836107a8565b915061095b8261091a565b602082019050919050565b6000602082019050818103600083015261097f81610943565b9050919050565b600081905092915050565b50565b60006109a1600083610986565b91506109ac82610991565b600082019050919050565b60006109c282610994565b9150819050919050565b7f416464726573733a20756e61626c6520746f2073656e642076616c75652c207260008201527f6563697069656e74206d61792068617665207265766572746564000000000000602082015250565b6000610a28603a836107a8565b9150610a33826109cc565b604082019050919050565b60006020820190508181036000830152610a5781610a1b565b905091905056fea2646970667358221220ce556dc0f212a40097ba981cfce85c2fd72654ab9aea31448862d5633019010364736f6c63430008120033",
  "immutableReferences": {
    "165": [
      {
        "length": 32,
        "start": 1016
      },
      {
        "length": 32,
        "start": 4308
      },
      {
        "length": 32,
        "start": 5001
      }
    ]
  },
  "source": "// SPDX-License-Identifier: MIT\n\npragma solidity ^0.8.0;\n\nimport \"@openzeppelin/contracts/access/Ownable.sol\";\nimport \"@openzeppelin/contracts/security/ReentrancyGuard.sol\";\nimport \"@chainlink/contracts/src/v0.8/interfaces/AggregatorV3Interface.sol\";\nimport \"@openzeppelin/contracts/security/PullPayment.sol\";\n\ncontract XKYC is Ownable, PullPayment, ReentrancyGuard{\n\n    //customer details\n    struct Customer{\n        string cnxid;\n        string email;\n        string kycDocCID;\n        string    verificationStatus; //pending, verified, rejected\n        bool isInitialized; \n    }\n\n    struct Details_x_Address {\n        Customer details;\n        address customerAddress;\n    }\n\n    //customer cnxid to address mapping, to enable search by cnxid\n    mapping(string => address) internal ID_2_address_map;\n\n    //store customer details in mapping \n    mapping(address => Customer) internal Customers;\n\n    //stores address as a respective index in pendingVerifications\n    mapping(address => uint256) internal unverifiedMemberIndex;\n\n    //array of verified addresses\n    address[] verifiedMembers;\n\n    //array of pending verifications\n    Details_x_Address[] pendingVerifications;\n\n    //array of rejected verifications\n    address[] rejectedRequests;\n\n    address payable payee;\n\n    string private completion = \"Success\";\n\n    //chainlink pricefeed to check BNB price\n    AggregatorV3Interface internal priceFeed;\n\n    event detailsSubmitted(address customer, string kycDocCID, string cnxid);\n\n    /**\n     * Modifier to limit access to only the admin: \n     * @ONLYOWNER \n     */\n\n    //add means to check that only those registered with CNX can do it\n\n    /**\n     * Modifier to prevent reentrancy in functions: nonReentrant\n     */\n    constructor(){\n        //TODO: change the pricefeed address to that of the mainnet when changing to production:\n        //BNB MAINNET feed address: 0x0567F2323251f0Aab15c8dFb1967E4e8A7D42aeE\n        //current one is mumbai testnet pricefeed address for ETH/USD.\n        priceFeed = AggregatorV3Interface(0x0567F2323251f0Aab15c8dFb1967E4e8A7D42aeE);\n\n        payee = payable(0xCaDaa5FB0b4E0EB3c847848ca6F2d136d347D8a7);\n        //payee = payable(msg.sender);\n    }\n    //events:\n    //successfully submitted application\n    //successfully changed customer verification status to..${status}\n\n\n    //Customer functions: \n    //will be able to submit request for verification: add customer struct to mapping with address as key\n    //will be able to view verification status\n\n    //admin functions:\n    //verify address/verification\n    //revoke verification\n    //view all addresses and their statuses? or search for an address to view its status\n\n    /**\n     * Get price from feed in int256, amount charged will be as returned here\n     */\n    function getBNBprice() public view returns (int256){\n        (uint80 roundID,\n         int256 answer,\n          uint256 startedAt, \n          uint256 timeStamp,\n          uint80 answeredInRound) = priceFeed.latestRoundData();\n\n        return answer;\n    }\n\n    function submitDetails(Customer memory details) nonReentrant() public payable returns (bool){\n        //require(Customers[msg.sender].isInitialized,\"Customer already registered\");\n        //fetch live price from chainlink, calculate using that price\n        require(msg.value> 0.0041 ether, \"Function called with insufficient funds\" );\n        details.verificationStatus = 'pending';\n        details.isInitialized = true;\n        Customers[msg.sender] = details;\n\n        Details_x_Address memory newRequest;\n\n        newRequest.details = details;\n        newRequest.customerAddress = msg.sender; \n\n        pendingVerifications.push(newRequest);\n\n        unverifiedMemberIndex[msg.sender] = pendingVerifications.length - 1;\n\n      //send tx money to payee's wallet\n\n        _asyncTransfer(payee, msg.value);\n/* \n      (bool sent, bytes memory data) = owner.call{value:msg.value}(\"\");\n        require(sent, \" funds not sent\"); */\n       \n        emit detailsSubmitted(msg.sender, details.kycDocCID, details.cnxid);\n        return true;\n    }\n\n    function getVerificationStatus( ) public view returns (string memory){\n        require(Customers[msg.sender].isInitialized, \"Address not registered\");\n        return Customers[msg.sender].verificationStatus;\n    }\n\n    function getUnverifiedMembers() public onlyOwner() view returns (Details_x_Address[] memory ){\n\n        return pendingVerifications;\n\n    }\n\n    //verify single member: address is gotten from the pendingVerifications array in the above function\n    function verifyMember(address member, string memory verificationStatus ) onlyOwner() public returns (string memory ){\n        \n        require(Customers[member].isInitialized, \"Customer not registered\");\n        Customers[member].verificationStatus = verificationStatus;\n        //get corresponding index of unverified member\n        uint256 index = unverifiedMemberIndex[member];\n\n        delete pendingVerifications[index];\n\n        return completion;\n\n    } \n\n    function withdraw () public returns (string memory){ \n        withdrawPayments(payee);\n\n        return completion;\n    }\n\n    function viewPendingWithdrawal() public view returns(uint256 ) {\n        return payments(payee);\n    }\n\n    function changePayee(address _payee) onlyOwner() public returns(string memory){\n\n\n        payee = payable(_payee);\n\n        return completion;\n    }\n\n    //function verifyMembers onlyOwner;\n    //function getUnverified members; will return address, and corresponding struct for processing on the admin portal\n    //function change verification status for a single member\n\n}\n",
  "sourcePath": "/home/iandev/xxkyc/xkyc/truffle/contracts/xkyc.sol",
  "compiler": {
    "name": "solc",
    "version": "0.8.18+commit.87f61d96.Emscripten.clang"
  },
  "schemaVersion": "3.4.14",
  "updatedAt": "2023-08-02T14:10:22.336Z",
  "networkType": "ethereum",
  "devdoc": {
    "kind": "dev",
    "methods": {
      "owner()": {
        "details": "Returns the address of the current owner."
      },
      "payments(address)": {
        "details": "Returns the payments owed to an address.",
        "params": {
          "dest": "The creditor's address."
        }
      },
      "renounceOwnership()": {
        "details": "Leaves the contract without owner. It will not be possible to call `onlyOwner` functions. Can only be called by the current owner. NOTE: Renouncing ownership will leave the contract without an owner, thereby disabling any functionality that is only available to the owner."
      },
      "transferOwnership(address)": {
        "details": "Transfers ownership of the contract to a new account (`newOwner`). Can only be called by the current owner."
      },
      "withdrawPayments(address)": {
        "details": "Withdraw accumulated payments, forwarding all gas to the recipient. Note that _any_ account can call this function, not just the `payee`. This means that contracts unaware of the `PullPayment` protocol can still receive funds this way, by having a separate account call {withdrawPayments}. WARNING: Forwarding all gas opens the door to reentrancy vulnerabilities. Make sure you trust the recipient, or are either following the checks-effects-interactions pattern or using {ReentrancyGuard}.",
        "params": {
          "payee": "Whose payments will be withdrawn. Causes the `escrow` to emit a {Withdrawn} event."
        }
      }
    },
    "version": 1
  },
  "userdoc": {
    "kind": "user",
    "methods": {
      "constructor": {
        "notice": "Modifier to prevent reentrancy in functions: nonReentrant"
      },
      "getBNBprice()": {
        "notice": "Get price from feed in int256, amount charged will be as returned here"
      }
    },
    "version": 1
  }
}